:1000000012C100002CC100002AC1000028C100005C
:1000100026C1000024C1000022C1000020C1000050
:100020001EC100001CC100001AC1000018C1000060
:1000300016C1000014C1000012C1000010C1000070
:1000400071C500000CC100000AC1000008C1000019
:1000500006C1000004C1000002C1000000C1000090
:10006000FEC00000FCC000004E4F00493243205249
:100070004541443A200049324320535441525420D0
:10008000434F4E444954494F4E004E41434B004E5E
:100090004F005945530020474F542041434B3A20CD
:1000A000004932432057524954453A20005945539C
:1000B000004E4F0020474F542041434B3A20004907
:1000C00032432057524954453A2000493243205385
:1000D0005441525420434F4E444954494F4E0049D5
:1000E00032432053544F5020434F4E444954494FBC
:1000F0004E004E4F0049324320524541443A2000C1
:100100004932432053544F5020434F4E44495449A1
:100110004F4E004E4F005945530020474F54204149
:10012000434B3A20004932432057524954453A2024
:10013000004932432053544F5020434F4E444954BA
:10014000494F4E004F4B004E41434B004932432034
:100150004F50454E00524541443A203078005752A6
:100160004954453A20307800435320444953414292
:100170004C454400435320454E41424C4544008D7C
:1001800001910195019C01A301AA01C30101FF0096
:100190000001FFFFFF02FF0000FFFFFF0220000041
:1001A00020FFFF02FF000010FFFF081080D910D9C8
:1001B000FF10FFD910D980108027102700100027CA
:1001C0001027800240FF804080FF3E200042616493
:1001D000436D64004572726F720076657273696F69
:1001E0006E0068656C70006C6564007265736574A0
:1001F000007370690069326300DA011B09E201E3F0
:1002000008E701B508EB01B208F101AD08F501A856
:1002100008000000003037303731304032313A3298
:10022000392D74726A0011241FBECFEFD4E0DEBFF7
:10023000CDBF11E0A0E0B1E0E4EEF3E102C0059033
:100240000D92A032B107D9F711E0A0E2B1E001C0F0
:100250001D92A038B107E1F77AD20C94F009D0CE04
:10026000FB01DC0104C08D910590801921F44150FF
:100270005040C8F7881B990B0895FB01DC0102C0B0
:1002800005900D9241505040D8F70895FC0105901B
:100290000020E9F7809590958E0F9F1F089587E6BF
:1002A00090E09093C5008093C40088E18093C100E2
:1002B00008951F93182F01C03CD38091C00085FF83
:1002C000FBCF1093C6001F9108958091C00087FF57
:1002D00003C08091C60043C508953C983D9844985A
:1002E00045981092200108950895F89485E3982F79
:1002F0009A95F1F73D9A3C9A982F9A95F1F73D9887
:100300008A95F1F73C9810922001789480EA9FE05A
:100310000197F1F70895F89420E035E3932F9A952B
:10032000F1F787FF02C03C9801C03C9A3D98932F9B
:100330009A95F1F73D9A2F5F283011F0880FEECF94
:10034000789408951F93F89485E38A95F1F73C9883
:100350003D9815E3812F8A95F1F7EBD2359BFACFC3
:1003600086B195E39A95F1F73D9A789490E024E070
:10037000969587952A95E1F781701F910895AF9220
:10038000BF92CF92DF92EF92FF920F931F93CF9382
:10039000DF937C01D62EF894B42EAA2435E3C32E25
:1003A00022C08B2D9A2DEC0110E000E0CBDF110F65
:1003B000182B0F5F0830D1F7F70110838C2D8A9529
:1003C000F1F7CC2311F03C9A01C03C980894E11C51
:1003D000F11C8C2D8A95F1F73D988C2D8A95F1F7BB
:1003E0003D9A3C98DA94DD2031F0F1E0FD15C8F635
:1003F000C1E0D0E0D9CF789481E0DF91CF911F9117
:100400000F91FF90EF90DF90CF90BF90AF90089545
:100410001F93CF93DF93EC01162FF89490E007C061
:10042000899179DF8FDF811181E0982F115011239D
:1004300011F09923A9F3789481E08927DF91CF9176
:100440001F910895282FF89495E3892F8A95F1F745
:1004500080912001882341F03C98892F8A95F1F7FB
:100460003D98892F8A95F1F73C9A85E38A95F1F7B3
:100470003D9A81E0809320012E7F862F822B4BDFD7
:1004800061DF90E0882309F491E0892F089580E0EE
:1004900061E0D8DF2ACF81E08093210108951F9386
:1004A000FC016130710519F58081833701F51FEF7B
:1004B000612F6170812FC6DF882391F0812FECD6E8
:1004C00088E2FAD6812F8695E7D680E2F5D610FF2E
:1004D00002C082E501C087E5EFD689E2EDD6CED62F
:1004E000D6DF112311F01150E3CF81E001C080E08D
:1004F0001F910895DF93CF930F92CDB7DEB7809110
:100500002101823019F0843039F510C06091220148
:10051000862F617097DF882321F4B9DF8AE890E0A5
:1005200015C086E790E0B0D684E012C08BE690E07C
:10053000ABD6CE01019661E041E021DF882319F0BE
:100540008981C2D607C0A3DF88E690E09DD685E00A
:100550008093210193D604C09ADF85E08093210126
:100560000F90CF91DF9108951F93182F8091210153
:10057000823049F0833031F1813009F041C010936D
:10058000220182E03FC08BEC90E07ED677D68FEBE5
:1005900090E07AD6809122017FD684EB90E074D6E9
:1005A00060912201862F61704DDF882321F46FDF77
:1005B00081EB90E01FC08DEA90E066D61093220197
:1005C00083E01AC081EA90E05FD68091220164D670
:1005D00086E990E059D682E291E061E019DF882354
:1005E00031F082E990E050D61093220107C04FDF2E
:1005F0008FE890E049D685E0809321013FD604C082
:1006000046DF85E0809321011F910895DF93CF930A
:100610000F92CDB7DEB7809121018330B9F08430DD
:1006200079F1823009F042C060912201862F617019
:1006300009DF882319F487E491E002C084E491E0A3
:1006400023D61CD652DE81E391E02EC085E291E0F4
:100650001BD68091220120D68AE191E015D682E254
:1006600091E061E0D5DE882319F086E191E002C0D7
:1006700083E191E009D602D638DE80E091E014C033
:1006800085EF90E001D6CE01019661E040E077DE93
:10069000882319F0898118D603C082EF90E0F4D541
:1006A000EDD523DE8FED90E0EFD5E8D51092210156
:1006B0000F90CF91DF91089517CE08958CE491E0CB
:1006C000E3D5DCD51092210108DEE1CE219A299AEA
:1006D00084B18C6284B92C9A83E58CBD8DB58EB5BE
:1006E00008958CB58F7B8CBD08958EBD0DB407FE2B
:1006F000FDCF8EB5089580E008951F938FEFF5DF4D
:10070000182F85E591E0C0D5812FDED5B7D51F9193
:100710000895299A88E691E0B7D5B0C5299884E76D
:1007200091E0B2D5ABC51F93182FDFDF8EE591E0C6
:10073000ABD5812FB9D5A2D51F910895D2CF0895F9
:10074000C5CF0895F6D0C1DD4DD3E1D187C10ED01C
:10075000E1D0529AA4DDD0D17ED131D285E06CD1E6
:1007600080E090E06ED57894EDDFFECF80E090E001
:1007700020E80FB6F89420936100809361000FBECB
:10078000089528E088E190E00FB6F894A89580934A
:1007900060000FBE20936000FFCFCF92DF92EF92F8
:1007A000FF920F931F93CF93DF93C62E7A01FA0126
:1007B0001082118212821382EC012AE0D22E00E014
:1007C00049C09881F70120813181428153812115EF
:1007D000310541055105D1F40230C0F4923631F4AF
:1007E000F1E0FC15E0F592E0D92E32C0002331F49F
:1007F000983661F481E08C1548F131C0013031F454
:10080000983721F4E2E0EC1508F129C0913610F098
:1008100087E509C0913410F087E305C09A3310F0E2
:1008200080E001C080E3192F181B1D15C0F46D2D49
:1008300070E080E090E06CD5610F711D811D911D0D
:10084000F701608371838283938302C080E1D82E95
:100850000F5F21960C1508F4B4CF81E001C080E051
:10086000DF91CF911F910F91FF90EF90DF90CF908C
:100870000895CF93DF93EC01DB0108C080818032C3
:1008800011F0893079F43196F983E883E881F981B0
:10089000E417F50799F706C08081803261F089304E
:1008A00051F031961196FC93EE93ED91FC911197D6
:1008B000E417F50789F720E088819981E817F9079F
:1008C00009F021E0822FDF91CF910895EF92FF92FE
:1008D0000F931F93CF93DF93EC018B017901C9DF55
:1008E000882381F08881F8016081681B9981A701C4
:1008F00054DF882339F0F8018081918199838883BE
:1009000081E001C080E0DF91CF911F910F91FF90B6
:10091000EF90089584B7886084BF29E088E190E073
:100920000FB6F894A895809360000FBE20936000E6
:100930000895A89508958093000108959B01AC0146
:10094000307040705070283031054105510579F103
:10095000293031054105510580F42130310541052B
:100960005105B0F1233031054105510500F1243026
:1009700031054105510561F51AC0203231054105A7
:100980005105A9F0213231054105510530F42031DE
:10099000310541055105E1F40AC020343105410516
:1009A000510529F0203831054105510589F4809120
:1009B000000190E0A0E0B0E0282339234A235B2324
:1009C000211531054105510511F05A9A08955A989B
:1009D000089510922A014091280150912901FA01AD
:1009E00064918091270190E09C01220F331F280F12
:1009F000391FF9013196E40FF51FE491E0932F01BF
:100A0000109230012E5F3F4FFA01E20FF31FE49185
:100A1000E0932B0110922C012F5F3F4F420F531F89
:100A2000FA01249120932D0110922E01019670E07D
:100A3000A2D4809327010895E82FF0E0EE0FFF1F66
:100A4000E158FE4F8591949190932901809328015C
:100A500010922701BECF80E0EFDFBBCF20912301B2
:100A60003091240140912501509126012617370726
:100A70004807590708F03FC080912A01482F50E0ED
:100A800060912F01709130014617570710F0A1DFD8
:100A900025C09B01241B350B80912B0190912C01CB
:100AA000FC012E9FC0012F9F900D3E9F900D1124A1
:100AB00020912D0130912E01F9014E9F90014F9F01
:100AC000300D5E9F300D1124820F931F40D4862F6E
:100AD00032DF80912A018F5F80932A0118D06C50F9
:100AE0007F4F8F4F9F4F609323017093240180931A
:100AF000250190932601089585B5816085BDA89A4A
:100B000016BCEEE6F0E0808181608083089520913C
:100B10003101309132014091330150913401B901DA
:100B2000CA0108951F920F920FB60F9211242F93AE
:100B30003F934F935F936F937F938F939F93AF9365
:100B4000BF93EF93FF938091310190913201A09177
:100B50003301B09134010196A11DB11D8093310183
:100B600090933201A0933301B0933401609131012D
:100B7000709132018091330190913401DFDEFF9159
:100B8000EF91BF91AF919F918F917F916F915F9105
:100B90004F913F912F910F900FBE0F901F9018957E
:100BA00080933B01882319F0813041F405C01092F5
:100BB0003C0110923801089510923901089580E0A7
:100BC000EFCF8A3010F4805D0895895C08951F93FB
:100BD000182F80913501882351F4812F6ADBE09131
:100BE0003601F0913701309711F0812F09951F914F
:100BF00008951F93182F82E6EADF17FF02C081E3F2
:100C000001C080E3E4DF16FF02C081E301C080E39E
:100C1000DEDF15FF02C081E301C080E3D8DF14FFEF
:100C200002C081E301C080E3D2DF13FF02C081E391
:100C300001C080E3CCDF12FF02C081E301C080E38A
:100C4000C6DF11FF02C081E301C080E3C0DF10FFF7
:100C500002C081E301C080E3BADF1F9108959F9233
:100C6000AF92BF92CF92DF92EF92FF920F931F93BA
:100C7000CF93DF93D62EA72EB82EC92EE12C8AEC67
:100C8000F82E8AE9082F8BE3182F99249394C0E05B
:100C9000D0E06D2D7A2D8B2D9C2DA80197017ED350
:100CA000C901DA010097A105B10511F0992402C02C
:100CB000992011F486DF8BDF6D2D7A2D8B2D9C2DE5
:100CC000A80197016BD3D62EA72EB82EC92EC80126
:100CD000B7012AE030E040E050E060D3C901DA011A
:100CE0007C018D012196C930D10599F68D2D69DFE2
:100CF0006EDFDF91CF911F910F91FF90EF90DF900A
:100D0000CF90BF90AF909F9008951F93182F82951A
:100D10008F7057DF5CDF812F8F7053DF58DF1F919B
:100D200008951F93182F80E352DF88E750DF812F4B
:100D3000ECDF1F910895CF93DF93EC0104C021965F
:100D4000F901849144DF9E01FE0184918823B9F763
:100D5000DF91CF9108958DE03ADF8AE038CF1F937D
:100D6000182F80913B01882339F08130C9F5809399
:100D7000390110933A0134C080913801882381F5FC
:100D80001D3029F01F3741F0183099F405C081E07B
:100D900080933801E0DF24C080913C01882301F179
:100DA000815080933C0188E012DF80E210DF88E010
:100DB00016C080913C018F3388F480910101882313
:100DC00011F0812F04DF80913C01E82FF0E0E35C1B
:100DD000FE4F10838F5F80933C0102C087E0F7DEF7
:100DE0001F91089580913B01882399F480913801E7
:100DF000882379F060913C01662321F08DE391E036
:100E000070E025D110923C018AEC91E094DF1092C1
:100E1000380108954F925F926F927F928F929F92C6
:100E2000AF92BF92CF92DF92EF92FF920F931F93F8
:100E3000DF93CF93CDB7DEB72C970FB6F894DEBF14
:100E40000FBECDBF6C014B01A42E290181E090E0C3
:100E5000A0E0B0E08D839E83AF83B8870894C11C67
:100E6000D11CB62EBC180894C108D108760100E048
:100E700010E095E0692E712C6C0E7D1E18C0F701F4
:100E800080818A3371F4101611065CF4C701019653
:100E90006B2DA30182DC882369F41D821E821F82D0
:100EA00018860894E11CF11C0F5F1F4FBA94E814D8
:100EB000F90429F76E2D6C19C601AE014F5F5F4F23
:100EC0006CDC882339F1E0917D01F0917E0130974F
:100ED00009F4A1C080859185892B91F49CC0E09193
:100EE0007D01F0917E010084F185E02D8981215002
:100EF0003040404050402D833E834F8358870995B2
:100F00002D813E814F8158852115310541055105BF
:100F100031F785C047018C189D08F1E08F169104C8
:100F200051F5F6018081823711F0823521F5E0918B
:100F30007D01F0917E01309709F46DC08285938523
:100F4000892B81F468C0E0917D01F0917E010284DB
:100F5000F385E02D0197A109B1098D839E83AF83AD
:100F6000B88709958D819E81AF81B8850097A105CD
:100F7000B10549F754C0AA2009F439C08E01075FB2
:100F80001F4FC80169EF71E044E050E076D989EF66
:100F9000A82E81E0B82E702E012F24C0C601B70103
:100FA000A4015ED9892BA1F4C70170D988169906CE
:100FB00078F0EB85FC85C601880D991DB201099575
:100FC000882321F484ED91E0B6DEC5DE81E028C0FF
:100FD00084E090E0A80EB91E872D902FB50144E063
:100FE00050E04BD9E984FA84E114F104B9F6E091B8
:100FF0007D01F0917E01309771F00484F585E02D3C
:10100000309749F02D813E814F815885C601B4014A
:101010000995882321F48DEC91E08DDE9CDE80E043
:101020002C960FB6F894DEBF0FBECDBFCF91DF91E7
:101030001F910F91FF90EF90DF90CF90BF90AF90F6
:101040009F908F907F906F905F904F900895DF9268
:10105000EF92FF920F931F93CF93DF93EC018B01DD
:10106000080F191FD82EED2EFF2441E05CC0FF2091
:1010700021F091E0F916D9F735C08B35D9F08C35D0
:1010800070F4833209F45CC0843230F4893009F49E
:1010900049C0803251F446C08C3239F443C08B379A
:1010A00049F08D3789F08D3579F0DC2EED2EFF2457
:1010B000F39438C0E0917D01F0917E01309781F08A
:1010C0000480F581E02D09C0E0917D01F0917E0161
:1010D000309731F00680F781E02D309709F00995BF
:1010E00040E020C08B35A1F08C3560F4833281F074
:1010F000843228F4893061F08032A1F409C08C3246
:1011000089F406C08B3721F08D3711F08D3551F4FD
:101110008D2D9E2DBE0198017DDE882389F4FF244C
:1011200040E001C02196C017D10711F088819FCF00
:1011300081E0F81629F48D2D9E2DBE019E016ADEF8
:10114000DF91CF911F910F91FF90EF90DF90089565
:1011500083E091E076D081E0089581E191E071D063
:1011600081E008950EDB81E00895DF93CF93CDB742
:10117000DEB728970FB6F894DEBF0FBECDBF9887B5
:101180008F83AB01CE010796BE016F5F7F4F9E013B
:101190002D5F3F4F9BDB882361F08B819C81AD816C
:1011A000BE8187309105A105B10518F445DC81E0C9
:1011B00001C080E028960FB6F894DEBF0FBECDBF09
:1011C000CF91DF910895DF92EF92FF920F931F93DB
:1011D000DF93CF9300D000D0CDB7DEB78E010F5F85
:1011E0001F4FC80169EF71E044E050E046D889EF35
:1011F000E82E81E0F82ED02E012F0CC09CDDABDD57
:1012000084E090E0E80EF91E8D2D902FB70144E0A8
:1012100050E033D889819A81009781F781E00F905F
:101220000F900F900F90CF91DF911F910F91FF9032
:10123000EF90DF90089585E192E07DDD8CDD81E027
:101240000895CF93DF93EC01E0917D01F0917E0151
:10125000309731F00280F381E02D309709F0099545
:10126000D0937E01C0937D01209729F0E881F98118
:10127000309709F00995DF91CF910895809102018F
:10128000882309F068CD08959C018091020188238C
:1012900011F0C90150CD0895982F80910201882343
:1012A00011F0892F3ECD0895982F80910201882357
:1012B00011F0892F2ACD0895982F8091020188235B
:1012C00011F0892F84CC089520917F01223071F094
:1012D000233028F42223A1F0213099F405C02330D3
:1012E00039F0243071F40AC072DC0BC082DC09C012
:1012F000682F70E080E090E0B2DC03C006DD01C042
:1013000010DD80910201882311F480E260CC089501
:10131000629FD001739FF001829FE00DF11D649FD9
:10132000E00DF11D929FF00D839FF00D749FF00D65
:10133000659FF00D9927729FB00DE11DF91F639F06
:10134000B00DE11DF91FBD01CF0111240895AA1BA5
:10135000BB1B51E107C0AA1FBB1FA617B70710F0A0
:10136000A61BB70B881F991F5A95A9F780959095D2
:10137000BC01CD01089597FB092E07260AD077FD01
:1013800004D0E5DF06D000201AF4709561957F4FF8
:101390000895F6F7909581959F4F0895A1E21A2E32
:1013A000AA1BBB1BFD010DC0AA1FBB1FEE1FFF1F09
:1013B000A217B307E407F50720F0A21BB30BE40B59
:1013C000F50B661F771F881F991F1A9469F76095A0
:1013D0007095809590959B01AC01BD01CF0108955A
:0413E000F894FFCFAF
:1013E400FF01015E035C034B020603B4027A024F61
:1013F40002A0039E038E03890393037D037B0300F2
:00000001FF
